:1000000003308A00C62B0000330803197428BB0094
:10001000370803197428BB07031815287F30BB0263
:10002000031C74280319742819288130BB0703188E
:1000300074283B08F700F801F901FA013408BF0001
:10004000BF173508BE003608BD001830BB00BC0124
:100050003D1C42283A08FA07031C3428F90A031DFC
:100060003428F80A0319BC173908F907031C3B2880
:10007000F80A0319BC173808B500B5173508F80792
:100080000318BC17BC0DF80CF90CFA0CBF0CBE0C15
:10009000BD0C0310BB0B27280130F7070318742889
:1000A000F81B5928BF0DFA0DF90DF80DF7030319C8
:1000B0007428BF1F6A28FA0A031D6A28F90A031D5B
:1000C0006A28F80A031D6A28F80CF90CFA0CF70ADA
:1000D000031974283408BC003808BC06BC1F7228F9
:1000E000F8177828F8137828F701F801F901FA01D0
:1000F00008000030F8001F08C73978049F00063058
:10010000F700F70B812800001F151F19852883169B
:100110001E088312A6001E08A7002708AD002608A7
:10012000AC008E30F7002D08F8002C08F900FA0119
:10013000F808031DA5287908F800F9010830F7022E
:10014000F808031DA528F701AD280310F81BAC28FB
:10015000F90DF80DF703A528F8137A08B600790809
:10016000B5007808B4007708B300BA01B9012030AF
:10017000B8008130B70004207A08AF007908AE00DB
:100180007808AD007708AC002F08B6002E08B5003F
:100190002D08B4002C08B300BA01B9014830B800EA
:1001A0008530B70004207A08AF007908AE007808DF
:1001B000AD007708AC002F08B3002E08B2002D0860
:1001C000B1002C08B000B701B601B5018930B40008
:1001D00030080319AD29BC0034080319AD29BC024D
:1001E000031CF7287F30BC070318AD29FD28813098
:1001F000BC02031CAD290319AD293C08F700F80126
:10020000F901FA01BB013108BA00BA173208B90086
:100210003308B8001930BC003708B8020318202989
:100220000130B90203182029BA0203182029BB02A1
:1002300003182029BB0ABA0AB90A3708B807522995
:100240003608B90203183B290130BA0203183B29CA
:10025000BB0203183B29BB0ABA0A3608B90737089C
:10026000B807031C5229B90A031D5229BA0A031DF3
:100270005229BB0A522935088038BA02031851297D
:100280000130BB0203185129BB0A35088038BA0770
:100290003608B907031C2F29BA0A031D2F29BB0AE8
:1002A0002F297A14BC0B552960290310B80DB90DFC
:1002B000BA0DBB0D0310FA0DF90DF80DBD0D0C298B
:1002C0003D1C68290310F80CF90CFA0CBD0C6B29C5
:1002D000F7030319AD29BD1B94290310B80DB90DFF
:1002E000BA0DBB0D3708B802031880290130B902D6
:1002F00003188029BA0203188029BB02031CA32912
:100300003608B90203188B290130BA0203188B2969
:10031000BB02031CA32935088038BA0203189429AC
:100320000130BB02031CA329FA0A031DA329F90A01
:10033000031DA329F80A031DA329F70A0319AD29F0
:10034000F80CF90CFA0C3108BC003508BC06BC1FCF
:10035000AB29F817B129F813B129F701F801F90110
:10036000FA017A08AB007908AA007808A900770892
:10037000A8002808F7002908F8002A08F9002B0827
:10038000FA008A110A12EC2B8318C9293B30840029
:100390008313F701F801F901FA01BB01BC01BD01AA
:1003A000BE013A083904380437040319072A2030FB
:1003B000BF000310B30DB40DB50DB60DBB0DBC0DD4
:1003C000BD0DBE0D3A083E02031DF02939083D025D
:1003D000031DF02938083C02031DF02937083B02B1
:1003E000031C012A3708BB023808031C380FBC0263
:1003F0003908031C390FBD023A08031C3A0FBE022C
:100400000314F70DF80DF90DFA0DBF0BD9293B08B0
:100410008000840A3C088000840A3D088000840A29
:100420003E08800008000408AB002A08AD0003194C
:10043000322A2908B6002808B5002708B400260883
:10044000B300BA01B9012030B8008230B7000420EF
:100450007A08A9007908A8007808A7007708A600FC
:10046000AD0B192A2908B6002808B5002708B400E2
:100470002608B3003308B63CB300FA013408B700CD
:10048000B4170310B40CB50CB60CFA0CF90CF80C3C
:10049000F70CB30B412AB71F582AF709F809F909D5
:1004A000FA09F70A0319F80A0319F90A0319FA0AEB
:1004B0007A08A9007908A8007808A7007708A6009C
:1004C000A91F6F2AAB03AB16A609A709A809A9099A
:1004D000A60A0319A70A0319A80A0319A90A3B3097
:1004E000B2009A30B100CA30B000AF010A30AD009E
:1004F0002A080319AB0A83142630840083132908C1
:10050000B6002808B5002708B4002608B300320852
:10051000BA003108B9003008B8002F08B700C4216C
:100520007808F708031DA72A2A0A2D020319A72A0B
:100530002B080319A92A0F392D020319A12A031820
:10054000DD2AAB1BDD2A2B1BA92A2030D82A20301C
:10055000AB05AB1EB82AAB122A08031DAB03770804
:10056000AB002D300C1EB22A99002B08F700AB010E
:100570002A082D02031DC72A7708AB002E300C1E57
:10058000BF2A99002B08F7002030AB05003030302F
:10059000AB1ED82AAB122A08031DAB037708AB00A9
:1005A0002D300C1ED12A99002B08F700AB013030FA
:1005B000F70777080C1EDA2A990083103208B60074
:1005C0003108B5003008B4002F08B300BA01B901F2
:1005D000B8010A30B700C4217A08B2007908B10026
:1005E0007808B0007708AF00AD0B7B2A8A110A1299
:1005F000052C273084008313000803190D2B0130CC
:10060000F800F701F70B022BF80B012B4A30F7002B
:10061000F70B082B0B2B800BFF2A0800A6012010DC
:1006200020088316870083120710162B201020083D
:1006300083168700831207140230F700F70B1E2B76
:10064000212B00002010200883168700831207103A
:10065000A0142008831687008312871C282B8E0184
:100660008F018E01A014200883168700831287183B
:10067000322B0F08FA000E08F7000F087A02031D4C
:10068000392B7708A7007A08A8002808AA002708AD
:10069000A900AC013A30AB00F801F901F701FA0109
:1006A0002C08031D562B2B080319702B1030AD009E
:1006B0000310A90DAA0DF70DFA0D2C087A02031DDF
:1006C000632B2B087702031C6C2B2B08F702031CEF
:1006D000FA032C08FA020314F80DF90DAD0B582B90
:1006E0007808A6002608F8008A110A12112C290899
:1006F000F801280203187F2B2808F7008B2BF7013D
:100700000830AA00A80DF70D290877020318F70092
:10071000F80DAA0B822B080078082608A800643080
:10072000A90077237708A60078083030031D9F2B97
:10073000A71CA72BA719A72B271A2030A22BA7117C
:1007400027122714F80778080C1EA42B99002608F6
:10075000A8000A30A90077237708A600780830306F
:10076000031DB82BA719BD2B271CBD2B271A203022
:10077000F80778080C1EBA2B99003030A607260817
:100780000C1EC02B99008A110A121C2C03081F3959
:100790008300193083169900A63098009030831298
:1007A0009800FF30A00083161F149F141F159F117F
:1007B00007309C0083131F1383121F179F17831684
:1007C0009F1783121F1483161F109F141F159F1548
:1007D00085308312900079287A08A4007908A30054
:1007E0007808A2007708A10054300C1EF52B990060
:1007F000893084002408A9002308A8002208A70043
:100800002108A6000130AA00132A23300C1E062C52
:1008100099000430A600FA30A700F922A60B0B2C91
:100820000E2B7808A50044300C1E142C99002508C6
:10083000A6001B30A7008C2B23300C1E1D2C99000A
:100840000430A600FA30A700F922A60B222CEB2BCD
:02085000630043
:02400E00713F00
:00000001FF
;PIC16F877A
;CRC=5AE7  CREATED="19-Sep-24 21:14"
