:1000000002308A00892A00000A108A100A11820729
:1000100028340C3401340634D730693A693767170D
:100020002E170000D4326D383A10A539A0210000F7
:10003000C434733A3A10A539A0316D0036308400CB
:1000400083130008031932280130F800F701F70B79
:100050002728F80B26284A30F700F70B2D283028E0
:10006000800B242808003D18372808123828081665
:10007000831608128312BD183F288812402888165C
:100080008316881283123D19472808134828081739
:10009000831608138312BD194F2888135028881718
:1000A0008316881300008312081583160811582838
:1000B000831208118316081183120800BE018316EB
:1000C000081600308312081A0130BE048316881601
:1000D00000308312881A0130F7000310F70D7708FB
:1000E000BE048316081700308312081B0130F70086
:1000F000F70DF70DFC30F7057708BE048316881757
:1001000000308312881B0130F700F70DF70DF70D53
:10011000F830F7057708BE043E08F800080083169B
:10012000081108108810831208108316081008168A
:100130008816081788178312881483168810000001
:100140008312081583160811000083125E207808B8
:10015000BD000811831608110000831208158316CC
:100160000811000083125E207808BC000811831675
:100170000811081288120813881383123D0EF70025
:10018000F030F70577083C04F8007808BC00BC1F85
:10019000CB2883169728BA08031DD0280810D12829
:1001A0000814831608100000831288108316881024
:1001B0000000831208118316081183123B0EBC0045
:1001C0000F30BC053C08BD0033203B080F39BC0094
:1001D000BD00332008008316081288120813881304
:1001E0000811081088108312081083160810831253
:1001F00088108316881083120811831608110F3097
:100200008312B6001E200130AC002C08033C031CF6
:1002100011290330BD0033200530B6001E20AC0A82
:1002200005290230BD0033200530B6001E20AC0188
:100230002C08033C031C25292C080420AD00BA011E
:100240002D08BB008F20AC0A18298A110A129F2A98
:10025000370B2B292E294030B8002F29B801013047
:100260003602B80738088038B900BA013908BB002F
:100270008F2008003508073A031948290B3A03195B
:100280004D29063A03195529023A03195B296029B9
:100290000130B600B70028216529BA010130BB0042
:1002A0008F200230B6001E2065290130B6000230D2
:1002B000B70028216529BA011030BB008F206529BD
:1002C0000130BA003508BB008F2008000B08AC00D5
:1002D0008B13831603178C170C1400000000831275
:1002E0000C087F390319AD290313AD0003170D085E
:1002F0000313AE0003170F080313AF002D08B5005A
:100300003A212E0803178D0003132F0803178F00BF
:1003100083168C170C140000000083120C0D0E0DB8
:100320007F390319AD290313AD0003170D0803131B
:10033000AE0003170F080313AF002D08B5003A21D4
:100340002E0803178D0003132F0803178F008D0A43
:1003500003198F0A0313692903170313AC1B8B17A7
:100360008A110A12AA2A0B08B1008B1383160317ED
:100370008C170C14000000000318E52983120C08E8
:100380007F390313B20003170D080313B3000317DB
:100390000F080313B4003208B5003A2133080317DD
:1003A0008D000313340803178F0083168C170C1469
:1003B0000000000083120313B00BDF29E22983162B
:1003C0000317E529042A8316031783120C0D0E0D5B
:1003D0007F390313B20003170D080313B30003178B
:1003E0000F080313B4003208B5003A21330803178D
:1003F0008D000313340803178F008D0A03198F0A29
:1004000003100313B00BB629B11B8B17080080082B
:1004100003191C2AB1010408B0003110831B3114E8
:100420000008B5003A21300884008313311883177F
:10043000840A0319850A072A08000130B600B700AC
:1004400028212C08840083132D1883170008543C9E
:10045000031D4F2A0C30B5003A2101302C07F8005B
:100460002D08FA000318FA0A7808AE007A08AF00DF
:10047000123003178D0000308F0003100630031375
:10048000B000B3212E08840083132F18831707228E
:100490002030B5003A214330B5003A217F2A2C089C
:1004A000840083132D1883170008443C031D7F2A02
:1004B0000C30B5003A2101302C07F8002D08FA0065
:1004C0000318FA0A7808AE007A08AF00183003174C
:1004D0008D0000308F00031006300313B000B321ED
:1004E0002E08840083132F18831707222030B500AD
:1004F0003A216330B5003A216D30B5003A21083019
:10050000AE00FA30B6001E20AE0B812A8A110A1204
:10051000BD2A03081F398300193083169900A630BD
:10052000980090308312980083161F149F141F1593
:100530009F1107309C0083138312AB01EB2801301D
:10054000B600B70028210C3003178D0000308F0053
:10055000031366298C1EC62A8C1EAC2A1A08AA0010
:100560002A08233C031DBF2A20302B078400831355
:100570008001AD012030AC001D2AAB01C62A2B083A
:10058000AB0A203E840083132A088000AA2A630055
:02400E00713F00
:00000001FF
;PIC16F877A
;CRC=B20C  CREATED="19-Sep-24 21:20"
